:020000040800F2
:100000006011002001010008090100080B0100082F
:100010000D0100080F010008110100080000000098
:1000200000000000000000000000000013010008B4
:100030001501000800000000170100081901000860
:100040001B0100081B0100081B0100081B01000820
:100050001B0100081B0100081B0100081B01000810
:100060001B0100081B0100081B0100081B01000800
:100070001B0100081B0100081B0100081B010008F0
:100080001B0100081B0100081B0100081B010008E0
:100090001B0100081B0100081B0100087102000879
:1000A0001B0100081B0100081B0100081B010008C0
:1000B000F10C0008890D0008000000001B01000879
:1000C0001B01000800000000000000001B010008E8
:1000D000000000001B010008350F000800000000B0
:1000E0001B0100081B0100081B010008DFF80CD0F1
:1000F00000F03CF800480047891500086011002016
:100100000648804706480047FEE7FEE7FEE7FEE7B1
:10011000FEE7FEE7FEE7FEE7FEE7FEE7A10C0008CC
:10012000ED00000840EA01039B0703D009E008C97D
:10013000121F08C0042AFAD203E011F8013B00F8AC
:10014000013B521EF9D27047D2B201E000F8012BF8
:10015000491EFBD270470022F6E710B513460A4647
:1001600004461946FFF7F0FF204610BD064C074D28
:1001700006E0E06840F0010394E807009847103477
:10018000AC42F6D3FFF7B6FFD0160008F016000811
:1001900070B58C1810F8015B15F0070301D110F849
:1001A000013B2A1106D110F8012B03E010F8016B76
:1001B00001F8016B5B1EF9D12B0705D40023521EF9
:1001C0000DD401F8013BFAE710F8013BCB1A921C61
:1001D00003E013F8015B01F8015B521EF9D5A1425F
:1001E000D8D3002070BD10B5662000F091FC00F05F
:1001F0003F0040F04001BDE81040662000F0E6BC42
:1002000010B500F01BFC00F00FFC022000F0B6FB64
:1002100000F07EFB002000F01FF800F012F8222012
:1002200000F0B6F806210A2000F05BFB22216520D1
:1002300000F0CCFCFFF7D7FFBDE81040102000F025
:100240009DBB10B56C2000F063FC40F00301BDE8DD
:1002500010406E2000F0BABC10B507216A2000F0F3
:10026000B5FC3F21BDE810406B2000F0AFBC0000A2
:1002700070B54FF4007529460A4800F0F2F80128DD
:100280000BD1094C2268521C2260012A05DD07A10E
:10029000002000F051FA002020602846BDE87040A0
:1002A00000F038B8000C014028000020455854499F
:1002B000395F355F49525148616E646C6572200A3E
:1002C000000000003EB500F005F90121084600F0ED
:1002D00089F90921012000F05FF84FF40070002433
:1002E00000908DF8044008208DF8050001258DF858
:1002F0000650684600F014F817208DF808008DF8B5
:10030000094003208DF80A008DF80B5002A800F078
:1003100015F93EBD01490860704700001404014012
:1003200030B51A498379026853B30B6893430B6065
:100330000A1D13680468A343136002790A44136812
:10034000046823431360114A083213680468A34306
:100350001360131D1C680568AC431C604479102CA5
:1003600005D021440A68006802430A6030BD116864
:10037000046821431160196800680143196030BDA9
:100380000079084401689143016030BD00040140D8
:100390000146682000F01ABC10B58A0721F003045A
:1003A0000649130F21440F228C689A4094438C60B5
:1003B0008A68984002438A6010BD00000000014036
:1003C000F0B5CA78002502F00F03D20601D58A786D
:1003D00013430A784FF00F0E12F0FF0F4FF0010297
:1003E0001CD004680F8802FA05F63740B74211D1D5
:1003F0004FEA850C0EFA0CF724EA070703FA0CF40F
:100400003C43CF78282F02D0482F02D002E046612B
:1004100000E006616D1C082DE4D304600C88FF2CFD
:100420001ED944685FF0000606F1080702FA07F5D6
:100430000F882F40AF420FD14FEA860C0EFA0CF70F
:10044000BC4303FA0CF73C43CF78282F00D1456119
:10045000CF78482F00D10561761C082EE4D3446084
:10046000F0BD0246002092680A4200D00120704789
:100470004161704701617047F8B50121082000F023
:10048000B1F84020ADF800001025114E8DF8035052
:1004900003248DF8024069463046FFF791FF802023
:1004A000ADF8000014208DF803008DF80240694675
:1004B0003046FFF785FF2020ADF800008DF803508F
:1004C0008DF8024069463046FFF77AFFF8BD00001C
:1004D000000C014008B50121082000F083F84FF41A
:1004E0000070ADF8000048208DF80300694602480E
:1004F000FFF766FF08BD0000000C014038B5012180
:10050000042000F06FF810208DF8030003208DF810
:100510000200074D4FF40064ADF8004069462846DC
:10052000FFF74EFF21462846FFF7A4FF38BD000025
:10053000000801404FF4A06000F032B870B50F23FE
:10054000C47801780122F4B1144C2468457804F48D
:10055000E064C4F5E064240AC4F10406E34084784E
:10056000B5401C402C4301F1E021230181F8003407
:10057000007800F01F018A404009800000F1E0206F
:10058000C0F8002170BD01F01F00824048098000C2
:1005900000F1E020C0F8802170BD00000CED00E00B
:1005A0000249084302490860704700000000FA054C
:1005B0000CED00E0044A0029D16901D0014300E0BC
:1005C0008143D1617047000000100240044A0029B5
:1005D000116901D0014300E08143116170470000BF
:1005E00000100240044A0029916901D0014300E053
:1005F000814391617047000000100240044A0029C5
:10060000D16801D0014300E08143D1607047000010
:100610000010024030B51F494A6812F00C031E4A10
:1006200003D0042B01D0082B21D002604A680F238D
:100630001A4C03EA1212A35C0268DA4042604B686B
:10064000072505EA1323E35C22FA03F383604B6872
:1006500005EAD323E35CDA40C2604968032303EA76
:100660009131231F595CB2FBF1F1016130BD4A6841
:100670004B6802F470124FF0020413F4803F04EB55
:10068000924202D04B689B0301D5054B00E0024B20
:100690005A43CAE70010024000127A00040000200A
:1006A00000093D002DE9F041884600EB400121485A
:1006B000164600EBC104E16A01F0030002280BD0EA
:1006C000A06A626A801A401E01D5226A10448642DE
:1006D00002DD89072BD006464EB30027A06A616A67
:1006E000451A6D1E01D5206A0544D4E90801411A56
:1006F000A94201DC616A451AB54200DB3546616AF0
:10070000E0692A4608444146FFF70CFD606A2F4421
:10071000A844761B28446062606A216A884201D13D
:1007200000206062002ED9D13846BDE8F08100205B
:10073000FBE70000D80000200FB408B504A9009121
:100740006A46039900F004F801B05DF814FB00005C
:100750002DE9F04198B0064607A8029040200025F8
:10076000CDE90305CDE9055690460C4614F8011B6A
:10077000002971D0252908D002A800F071FE059843
:100780000028F3DA18B0BDE8F08100202178232991
:100790001BD02B2916D02D290ED030290FD00022A6
:1007A0002178A1F130030A2B13D202EB820201EB74
:1007B0004202303A641CF3E740F0010007E040F0E9
:1007C000020004E040F0040001E040F00800641C76
:1007D000DCE70023CFB22E2F0CD100BF14F8011F8D
:1007E000A1F130070A2F05D203EB830301EB43038A
:1007F000303BF3E76C290DD068290BD0702954D019
:100800000BDC252916D0582931D063290CD0642956
:1008100013D114E014F8011BECE7732934D07529C7
:100820001BD0782909D122E0D8F80000011DC8F8B2
:100830000010017802A800F013FE641C9FE7D8F8AE
:1008400000100F1DC8F800700968CDE900200A22C9
:1008500002A800F035FDF0E733E0D8F800100F1DD6
:10086000C8F800700968CDE900200A2208E0D8F82D
:1008700000100F1DC8F800700968CDE90020102293
:1008800002A800F07FFDD8E7D8F80000011DC8F8E5
:100890000010076817F8011B0029CED002A800F04D
:1008A000DFFD05980028F5DAC7E7D8F80000011D3C
:1008B000C8F8001001680820CDE9000503461022A1
:1008C000DEE7059800287FF75DAF049820B1024667
:1008D00007A93046FFF7E6FEDDE90401084405906C
:1008E00050E770B505460C46662000F011F900F09F
:1008F000E0012943662000F069F9672000F008F95B
:1009000000F0E0012143BDE87040672000F05EB9CF
:1009100070B5194C6178042919D204F15B0000F11B
:100920002505012904D002290AD003291BD00EE095
:1009300011491122891CFFF7F5FBB4F8130005E0FB
:100940000D4911221531FFF7EDFBE08CA8820A4D0D
:1009500000243B352046295D00F038F9641CE4B2E0
:10096000602CF7D370BD044911222831FFF7DAFB60
:10097000B4F83900EAE700003A00002001466020A0
:1009800000F024B90CB500212548019100910268BE
:1009900042F4803202604FF4A063026802F4003235
:1009A0000092019A521C0192009A12B9019A9A423D
:1009B000F3D10268920331D50121009119490A68E7
:1009C00042F010020A600A6822F003020A600A6814
:1009D00042F001020A60416841604168416041683B
:1009E0004160416821F47C114160416841F4F81193
:1009F0004160016841F08071016001688901FCD5A6
:100A0000416821F003014160416841F00201416009
:100A10004168C1F381010229FAD10CBD00910CBDDE
:100A2000001002400020024010B5FF217F2000F09E
:100A3000CDF8BDE81040142000F076BD2DE9F84F48
:100A400001210820FFF7CEFD4FF48046ADF800608D
:100A500014208DF80300DFF8B4A003248DF80240C1
:100A600069465046FFF7ACFC01210820FFF7BAFDAC
:100A70007710ADF8007010258DF803508DF8024006
:100A800069465046FFF79CFC01210820FFF7AAFDAC
:100A90004FF48058ADF800808DF803508DF8024077
:100AA00069465046FFF78CFC01210820FFF79AFDAC
:100AB0004FF48069ADF800908DF803508DF8024036
:100AC00069465046FFF77CFC01210820FFF78AFDAC
:100AD000E801ADF8000048208DF803008DF80240D1
:100AE00069465046FFF76CFC39465046FFF7C2FC9A
:100AF00049465046FFF7BEFC31465046FFF7BAFC68
:100B000041465046FFF7B4FCBDE8F88F000C0140A9
:100B10002DE9F047002440F08007FFF78FFF2A4DB2
:100B20004FF400512846FFF7A3FC0A2000F012FD05
:100B300000264FF480494FF480583806494628462D
:100B400002D5FFF797FC01E0FFF792FC41462846EB
:100B5000FFF78EFC0A2000F0FDFC41462846FFF717
:100B600089FC0A2000F0F6FC7806761C070EF6B227
:100B7000082EE2D3082647466006040E394628466A
:100B8000FFF776FC0A2000F0E5FC39462846FFF71F
:100B900071FC0A2000F0DEFC49462846FFF761FCA4
:100BA000012801D144F00104761E16F0FF06E3D1BE
:100BB00039462846FFF75CFC0A2000F0CBFCFFF723
:100BC0003DFF2046BDE8F087000C01402DE9F047CD
:100BD0000E4620F08007FFF731FF2A4C4FF40051FA
:100BE0002046FFF745FC0A2000F0B4FC00254FF436
:100BF00080494FF4805838064946204602D5FFF711
:100C000039FC01E0FFF734FC41462046FFF730FC99
:100C10000A2000F09FFC41462046FFF72BFC0A20EB
:100C200000F098FC78066D1C070EEDB2082DE2D39B
:100C30000025474630064946204602D5FFF71AFCF4
:100C400001E0FFF715FC39462046FFF711FC0A20AA
:100C500000F080FC39462046FFF70CFC0A2000F02B
:100C600079FC70066D1C060EEDB2082DE2D33946F4
:100C70002046FFF7FDFB0A2000F06CFCBDE8F047C2
:100C8000FFF7DCBE000C01404FF0E02104280869AA
:100C900003D020F004000861704740F00400FAE738
:100CA0000F4810B5016841F00101016041680D4A2B
:100CB0001140416001680C4A11400160016821F453
:100CC00080210160416821F4FE0141604FF41F0161
:100CD0008160FFF757FE05494FF00060086010BDC6
:100CE000001002400000FFF8FFFFF6FE08ED00E0F4
:100CF00010B501218C07204600F0B9F800280ED06D
:100D00000121204600F0A6F805488178491CC9B2A7
:100D10008170C72903D9012141700021817010BD64
:100D2000D50000207FB50C46054601210846FFF797
:100D300041FCADF80450ADF8004000244FF0804570
:100D4000ADF80640ADF802406946284600F0A4F828
:100D500001221146284600F096F81C208DF80C0060
:100D600001218DF80D1003208DF80E008DF80F1065
:100D700003A8FFF7E3FB0121284600F06EF80148C5
:100D800044707FBDD500002010B50E4C01212046D7
:100D900000F06DF8002813D00121204600F05AF829
:100DA00009490878401C40B20870012808DD07494D
:100DB0000020087006490880BDE8104000F00AB81D
:100DC00010BD000000040040D500002031000020CC
:100DD000320000200349002008700146024800F05C
:100DE0003CB80000D5000020000400407FB50C4650
:100DF000054601210220FFF7DDFBADF80450ADF8F8
:100E000000400024114DADF80640ADF8024069469F
:100E1000284600F041F801221146284600F033F838
:100E20001D208DF80C0001218DF80D1003208DF888
:100E30000E008DF80F1003A8FFF780FB0121284654
:100E400000F00BF8024804707FBD00000004004071
:100E5000D5000020C943018270470029018802D0D3
:100E600041F0010101E021F00101018070470246DB
:100E70000020138A92890B4202EA010202D0002A62
:100E800000D001207047002A828901D00A4300E087
:100E90008A4382817047000030B502881B4B1C4C8E
:100EA00098420DD0A0420BD0B0F1804F08D0194D20
:100EB000A84205D0184DA84202D0184DA84203D12F
:100EC00022F070054A882A43154DA84206D0154DD8
:100ED000A84203D022F44075CA882A4302808A8837
:100EE00082850A88028598420AD0A04208D00E4A1C
:100EF000904205D00D4A904202D00D4A904201D155
:100F0000097A01860121818230BD0000002C014058
:100F1000003401400004004000080040000C004084
:100F20000010004000140040004001400044014017
:100F3000004801402DE9F047724C40F2255120460F
:100F400000F02CF900287DD0204600F0B5F96F4C58
:100F500001466D4E60884FF0010941F61F4831543B
:100F6000401C60800025E580607828B328E000BF41
:100F7000FFF730FF6188E088081A80B220810128DD
:100F800006D0022808D003280CD005281CD00CE07D
:100F90003078412803D108E07078502805D065806A
:100FA000E58002E0B0785328F9D141469520FFF75B
:100FB0001DFFE088401CE080E18860888142D7D333
:100FC0006078012824D028E084F8019041469520DB
:100FD000FFF70CFFF4E700BFFFF7FCFE6088E18835
:100FE000401A80B22081092807D039469520FFF7A2
:100FF000FDFEE088401CE0800BE0701D00F0EAFA86
:10100000A0800220607039469520FFF7EFFE04E0D3
:101010004746E08861888842DED3607802281DD088
:1010200021E000BFFFF7D6FE6088E188401A80B259
:101030002081A188C91E814208D1032060703946F1
:10104000952000E012E0FFF7D1FE0CE03946952034
:10105000FFF7CCFEE088401CE08000E04746E088D7
:1010600061888842DED36078032846D0BDE8F087E7
:10107000FFF7B0FE6088E188401A80B22081A7881F
:10108000B91E814206D1F11911F8031C452901D07E
:101090006580E580791E814206D1F11911F8021CA4
:1010A0004E2901D06580E58087421FD1B8B2304417
:1010B00010F8010C442801D06580E5804FF4806170
:1010C0001348FFF748F83A460F491148FFF72AF846
:1010D0000F48A188455484F8009065706580E580CC
:1010E0004146BDE8F0479520FFF780BE4146952078
:1010F000FFF77CFEE088401CE080E0886188884241
:10110000B6D3B3E700440040500500203000002073
:10111000500100200029818902D041F4005101E0F2
:1011200021F4005181817047174910B588420AD1D6
:1011300001218C032046FFF761FA2046BDE81040EC
:101140000021FFF75BBA1149884202D101214C040A
:1011500010E00F49884202D101218C040AE00D49B8
:10116000884202D10121CC0404E00B4988420AD113
:1011700001210C052046FFF729FA2046BDE8104062
:101180000021FFF723BA10BD0038014000440040A1
:1011900000480040004C00400050004030B501F0D5
:1011A0001F0201240025C1F3421304FA02F2012BAD
:1011B0000FD0022B0FD0838A4FEA112100881342EF
:1011C00004FA01F400EA040001D000B10125284628
:1011D00030BD8389F0E7038AEEE710B5C1F342130F
:1011E00001F01F040121A140012B07D0022B07D0E1
:1011F0001430002A026805D00A4304E00C30F8E7F6
:101200001030F6E78A43026010BD000030B5044696
:10121000008A85B00D464CF6FF710840E98801430D
:101220002182A1894EF6F3100140A8882A89104333
:101230006A890A431043A081A08A4FF6FF41084003
:10124000A9890143A1826846FFF7E4F9194884425D
:1012500001D1039800E00298A189090400EBC001C4
:1012600001EB0010296801D5490000E08900B0FBBE
:10127000F1F06422B0FBF2F109010B096FF01805DF
:101280006B4300EB8300A3891D044FF0320306D5A6
:1012900003EBC000B0FBF2F000F0070005E003EB49
:1012A0000010B0FBF2F000F00F000843208105B001
:1012B00030BD0000003801408088C0F3080070474E
:1012C0002DE9FC5F0E008146DDE90C47C6F1000008
:1012D00098469346824600D40846012503E000BFA5
:1012E000B0FBFBF06D1C5845FAD2A84500D9454625
:1012F00024B1002E01DB780700D5641EB80702D5A3
:10130000B8F1000F10D0F8070ED16CB12046641E62
:10131000A84209D92021484600F0A2F8D9F80C00CB
:101320000028F2DABDE8FC9F002E02DA56462D2195
:1013300002E0780707D52B21484600F091F8D9F84C
:101340000C000028EEDB07F00300022810D1B8F1F2
:10135000000F0DD164B12046641EA84208D9302187
:10136000484600F07DF8D9F80C000028F2DAD9E7F9
:10137000CDE9004743465A463146484600F002F858
:10138000D0E700002DE9F84F8246DDE90A4B01263F
:10139000984691460D460846374602E0B0FBF9F004
:1013A0007F1C4845FAD2B84500D947465FEACB7062
:1013B0001CD1DCB15FEA8B7002D5B8F1000F02D00E
:1013C000202000900AE03020FBE75046009900F012
:1013D00047F8DAF80C0000283EDB3CB12046641EDA
:1013E000B842F2D802E000BF06FB09F6B5FBF6F101
:1013F000494501D3012100E000214246A8F101083E
:10140000012A01DD012000E000200143ECD1DFF8DA
:101410004C8000BFB5FBF6F000FB165518F8001025
:10142000504600F01DF8DAF80C00002803DBB6FB8C
:10143000F9F6002EEED15FEACB700DD0002C0BD068
:101440002046641EB84207D92021504600F008F813
:10145000DAF80C000028F1DABDE8F88FB4160008BD
:1014600010B50446D4E90130421C934205DB2368E1
:101470001954A260E068401CE060D4E90102824295
:1014800009D121682069FFF70DF9A168884203D0CE
:101490004FF0FF30E06010BD0020A06010BD02E002
:1014A00008C8121F08C1002AFAD1704770470020EF
:1014B00001E001C1121F002AFBD170470B49498886
:1014C00048434FF0E021486100228A61086940F0FA
:1014D000010008610869C30701D0C003FAD5086993
:1014E00020F0010008618A61704700002C00002094
:1014F00010B50420FFF7C8FB084809490068B0FB95
:10150000F1F0C1B2074801EB41020170C2EBC11119
:101510004FF6FF7202EAC101418010BD14000020A5
:1015200040420F002C00002070B54FF4E9750446CE
:10153000A84203DABDE87040FFF7C0BF4FF4C87699
:101540003046FFF7BBFFA4F5C874AC42F8DAA0B28E
:10155000F0E700000B49097848434FF0E02148616B
:1015600000228A61086940F0010008610869C30728
:1015700001D0C003FAD5086920F0010008618A6132
:10158000704700002C000020FFF7B2FFFEF7D2FFEB
:10159000FEF772FFFEF7B2FFFEF79CFFFEF792FE2A
:1015A000FEF72EFE4FF4614000F02CF841F61F418B
:1015B00043F69720FFF7B6FB03A10020FFF7BCF826
:1015C0000220FFF7C7FFFBE7696E6974204F4B20CD
:1015D0000A0000000178C278303901EB4103C3EB07
:1015E000C11102EBC102417880786423594300EBBA
:1015F000800001EB40001044A0F5A050D03880B22C
:10160000704700002DE9F0418046012186B0480472
:10161000FEF7D0FF01210420FEF7E4FF234E304601
:10162000FFF782FD0425ADF8105003248DF8124019
:1016300018201F4F8DF8130004A93846FEF7C0FE8E
:101640000820ADF810008DF8135004A93846FEF7B5
:10165000B7FE0021ADF80810ADF804100C20ADF86D
:101660000610ADF80C10ADF80A00CDF80080694600
:101670003046FFF7CBFD26208DF814008DF815407D
:101680008DF8164001208DF8170005A8FEF756FFCB
:10169000012240F225513046FFF79FFD01213046DF
:1016A000FFF738FD06B0BDE8F081000000440040BF
:1016B0000008014030313233343536373839414251
:1016C000434445465465726D696E616C00000000CC
:1016D000F0160008000000205001000090010008F2
:1016E000AC1700085001002010100000AE140008D4
:1016F00045020406082D0102030404150607080923
:101700008451250279140113136932181766D169BF
:101710000C0A9F392929C0501453081F90D3641014
:1017200033D135131A4B13180D280A53080F70A61E
:10173000C91020A112131A5A131714055310075079
:10174000200F66EC1DF0801408910302D0AEE03546
:1017500016F410E24220F80A814271CE1C425B1C52
:101760001C46111AB48A211312045AAA9A4DD42D78
:10177000011FA1212360FF161F10504D06130F708B
:10178000358A183F7F600B534547474552205254D6
:10179000542937290413C4161408500912200226AC
:0C17A000043930120D0327201000000057
:04000005080000ED02
:00000001FF
